:040000000CEF00F011
:10000800FACF22F0FBCF23F0E9CF24F081ED04F002
:0400180047EF07F0B7
:100600000001000A006400E803102743726F6E6F58
:10061000202D2050726F672E0043726F6E6F202D59
:10062000205265672E00253032643A25303264004E
:100630000000110E196E000E1A6E4DD1250E2118F4
:10064000D8B409D00DC0D9FF0EC0DAFF21C0DFFF3A
:100650000D4A0E2A40D1000E206E000E1F6E000EB5
:100660001E6E05D01E840F4A102A01D00BD00FC079
:10067000F6FF10C0F7FF0800F550300AD8B4F2D7E3
:1006800001D0F5D70FC0F6FF10C0F7FF0800F550F6
:10069000CAEC07F0D8A039D0000E206E000E1F6EF5
:1006A00000D01FC001F020C002F0000E046E0A0E40
:1006B000036E90EC07F001C01FF002C020F0D00ED6
:1006C000156EFF0E166E0FC0F6FF10C0F7FF080084
:1006D000F550176E186A1550172616501822175025
:1006E0001F26185020220F4A102A0FC0F6FF10C0F4
:1006F000F7FF0800F550CAEC07F0D8A006D0D1D714
:1007000004D0F7D015D0E7D013D00FC0F6FF10C03B
:10071000F7FF0F4A102A0800F5CF21F02150000AF8
:10072000D8B4E7D0640AD8B403D00D0AD8A4D3D083
:1007300019C0D9FF1AC0DAFFDECF1CF0DDCF1DF0E3
:10074000020E1926000E1A221DAE07D0030E1E122D
:100750001C6C1D1ED8B01D2A00D0010E216E050E86
:100760002118D8B416D001D014D02150020D010E9A
:10077000F324F66E060EF420F76E0900F5501C5CAB
:100780000900F5501D58D8A004D001D002D0212A6C
:10079000E6D71F502010D8B40AD01EC015F0030EA3
:1007A0001516D8B404D01F06D8A0200600D0800E9D
:1007B00021BE7F0E156E1F50215C2050800A1558F7
:1007C000D8B007D021501F5E000E21BEFF0E205A68
:1007D00005D0000E206E000E1F6E00D01EA424D087
:1007E0001EC015F0030E1516D8B409D00DC0D9FFE0
:1007F0000EC0DAFF2D0EDF6E0D4A0E2A00D01F50FC
:100800002010D8B435D00DC0D9FF0EC0DAFF300E9D
:10081000DF6E0D4A0E2A1F06D8A020061F5020109A
:10082000D8B426D0F0D724D01F502010D8B411D07F
:100830000DC0D9FF0EC0DAFF200EDF6E0D4A0E2A62
:100840001F06D8A020061F502010D8B402D0F0D721
:1008500000D01EC015F0030E1516D8B409D00DC077
:10086000D9FF0EC0DAFF2D0EDF6E0D4A0E2A00D022
:1008700021C01BF02AD01B50020D010EF324F66E8E
:10088000060EF420F76E0900F5CF03F00A00F5CF4D
:1008900004F01CC001F01DC002F012EC06F001C013
:1008A00008F002C009F0000E0B6E0A0E0A6EC1ECD1
:1008B00006F00850300F216E0DC0D9FF0EC0DAFFD0
:1008C00021C0DFFF0D4A0E2A00D01B061B28D8B41A
:1008D00002D0D1D700D00FC0F6FF10C0F7FF0F4AEB
:1008E000102A0800F5CF21F02150D8B402D0A6D6A6
:1008F00000D00DC0D9FF0EC0DAFF000EDF6E00D0B1
:1009000012000600EACF25F0E1CF26F0E2CF27F073
:10091000D9CF28F0DACF29F0F3CF2AF0F4CF2BF09B
:10092000F6CF2CF0F7CF2DF0F8CF2EF0F5CF2FF03B
:10093000F2A222D0F29241504210D8A413D00B0E52
:10094000066E060E076E4B0E086E000E096E62EC08
:1009500007F08480000E3C6E010E3B6E000E426E6E
:10096000010E08D08490000E3C6E000E3B6E000E0F
:10097000426E000E416EAED0F0A022D0F0904350F7
:100980004410D8A413D0190E066E060E076E4B0E37
:10099000086E000E096E62EC07F08482000E3E6E57
:1009A000010E3D6E000E446E010E08D08492000EC2
:1009B0003E6E000E3D6E000E446E000E436E8AD0F9
:1009C000F2A488D0F294000ED66E394A3A2A4D0E1F
:1009D00039183A10D8A47ED0000E3A6E000E396E47
:1009E0003B043C10D8A403D06CEC06F000D03D04CE
:1009F0003E10D8A403D040EC06F000D081B034D033
:100A0000374A382A020E37183810D8A42DD0000ED5
:100A1000386E000E376E000E466E000E456E000EEC
:100A2000406E000E3F6E000E3C6E000E3B6E4B0E95
:100A30000D6E000E0E6E260E0F6E060E106E3FC06F
:100A400011F040C012F045C013F046C014F019EC8C
:100A500003F00B0E066E060E076E4B0E086E000EB0
:100A6000096E62EC07F000D081B234D0374A382AE0
:100A7000020E37183810D8A42DD0000E386E000E94
:100A8000376E000E4A6E3B0E496E000E486E3B0EEE
:100A9000476E000E3C6E000E3B6E4B0E0D6E000E50
:100AA0000E6E260E0F6E060E106E47C011F048C077
:100AB00012F049C013F04AC014F019EC03F0190EFB
:100AC000066E060E076E4B0E086E000E096E62EC87
:100AD00007F000D02FC0F5FF2EC0F8FF2DC0F7FFA4
:100AE0002CC0F6FF2BC0F4FF2AC0F3FF29C0DAFFA9
:100AF00028C0D9FF27C0E2FF26C0E1FF25C0EAFFDA
:100B000024C0E9FF23C0FBFF22C0FAFF1100366EAC
:100B1000F00E8316F00E95169494949094928B9404
:100B20008B908B9207EC08F0300EE7EC06F0050E88
:100B3000E8EC07F0300EE7EC06F0010EE8EC07F009
:100B4000320EE7EC06F000D017EC08F00009D8B43C
:100B500002D0FAD700D017EC08F00009D8A4FBD7D0
:100B60003650E7EC06F000D017EC08F00009D8A4E6
:100B7000FBD7080EE7EC06F000D017EC08F00009F0
:100B8000D8A4FBD70F0EE7EC06F000D017EC08F066
:100B90000009D8A4FBD7010EE7EC06F000D017EC53
:100BA00008F00009D8A4FBD7040EE7EC06F000D04B
:100BB00017EC08F00009D8A4FBD7800E97EC06F0DC
:100BC00000D012001BD000D01EEC08F00009D8A401
:100BD000FBD704C0F6FF05C0F7FFF86A050EF764FF
:100BE00003D00800F55005D0F6CFE9FFF7CFEAFFB4
:100BF000EF5027EC07F0044A052A00D004C0F6FFA6
:100C000005C0F7FFF86A050EF76403D00800F55039
:100C100005D0F6CFE9FFF7CFEAFFEF500009D8A4DF
:100C2000D3D71200000E066E000E056E035004109E
:100C3000D8B421D0010E076E05D0D8900336043603
:100C4000072A00D004BE02D0F8D700D0D8900536CD
:100C500006360350015C04500258D8A006D0035059
:100C6000015E0450025A058000D0D890043203324D
:100C7000072EECD700D005C001F006C002F012002C
:100C80004906D8A04A0649504A10D8A408D04706B9
:100C9000D8A04806000E4A6E3C0E496E00D04B0E9E
:100CA0000D6E000E0E6E260E0F6E060E106E47C0F5
:100CB00011F048C012F049C013F04AC014F019EC0A
:100CC00003F0190E066E060E076E4B0E086E000E30
:100CD000096E62EC07F01200454A462A3C0E4518A0
:100CE0004610D8A407D03F4A402A000E466E000E98
:100CF000456E00D04B0E0D6E000E0E6E260E0F6E62
:100D0000060E106E3FC011F040C012F045C013F047
:100D100046C014F019EC03F00B0E066E060E076EBB
:100D20004B0E086E000E096E62EC07F01200356E75
:100D3000F00E9516F00E83163550326E336A328EF1
:100D4000040E346E333433323232342EFBD7325009
:100D50000F0B83128B948B90A4EC07F08B82A4EC86
:100D600007F08B92F00E831635500F0B8312A4EC14
:100D700007F08B82A4EC07F08B920F0E951200D037
:100D800012000A500B10D8B41DD0010E0C6E05D005
:100D9000D8900A360B360C2A00D00BBE02D0F8D7FA
:100DA00000D00A50085C0B500958D8A005D00A5052
:100DB000085E0B50095A00D0D8900B320A320C2E24
:100DC000F0D700D008C008F009C009F01200326E58
:100DD000F00E9516F00E831632380F0B0F0B8312A0
:100DE0008B948B90A4EC07F08B82A4EC07F08B9291
:100DF000F00E831632500F0B8312A4EC07F08B8297
:100E0000A4EC07F08B920F0E951200D01200036E27
:100E1000F00E9516F00E831603380F0B0F0B83128E
:100E20008B948B90B7EC07F08B82B7EC07F08B922A
:100E3000F00E831603500F0B8312B7EC07F08B8272
:100E4000B7EC07F08B920F0E951200D01200036ED4
:100E5000F00E9516F00E831603380F0B0F0B83124E
:100E60008B808B94B7EC07F08B82B7EC07F08B92FA
:100E7000F00E831603500F0B8312B7EC07F08B8232
:100E8000B7EC07F08B920F0E951200D0120000EE17
:100E900037F0100EEE6AE806FDE14A0EF66E100E0F
:100EA000F76E000EF86E00EE47F010EE09F0090044
:100EB000F5CFEEFFE550E150FAE1000EF86E0001CB
:100EC000F4EF07F0010E07EC07F00FEC08F0800ECE
:100ED00007EC07F006C004F007C005F0E2EC05F0EF
:100EE000C00E07EC07F008C004F009C005F0E2EC02
:100EF00005F01200FEEC07F0280E87EC05F0FEEC82
:100F000007F00C0EE7EC06F0FEEC07F000D017EC53
:100F100008F00009D8A4FBD7010EE7EC06F0120098
:100F200001500302F3CF05F0F4CF06F001500402A4
:100F3000F350062602500302F350062605C001F0C6
:100F400006C002F000D01200000E316E000E306EAE
:100F500031BE08D031500AE1120E305CD8B006D054
:100F600001D004D0304A312AF3D700D01200000E4D
:100F7000026E000E016E02BE08D002500AE1120E8F
:100F8000015CD8B006D001D004D0014A022AF3D7C0
:100F900000D01200036E000E026E3A0E036006D0FF
:100FA0002F0E036403D0010E026E00D002C001F0C8
:100FB000013000D01200000E966E9368F19EF28E02
:100FC000F288F086F28AC70ED56E000ED66E120039
:100FD000316E0D0E306EFC0EE82EFED7302EFCD793
:100FE000312EF7D700D01200DBEC07F07AEC07F0D7
:100FF000000E846E8480FFD70CEF00F0210E306E5F
:10100000760EE82EFED7302EFCD700D01200620EEE
:10101000306E660EE82EFED7302EFCD71200620E20
:10102000016E660EE82EFED7012EFCD71200100EC0
:10103000E82EFED700D0000E00D01200100EE82ED1
:10104000FED700D0000E00D012003B003B00303035
:041050003A30300002
:020000040020DA
:08000000FFFFFFFFFFFFFFFF00
:020000040030CA
:0E000000FF021F1FFF8181FF0FC00FE00F40A6
:00000001FF
